S01700004763634170706C69636174696F6E332E7372656359
S113000012C024C023C022C021C020C01FC01EC0F3
S11300101DC01CC01BC01AC019C018C017C016C010
S113002015C014C013C011241FBECFE5D4E0DEBF39
S1130030CDBF10E0A0E6B0E0EEE3F1E002C0059031
S11300400D92A636B107D9F76ED077C0D9CF61111A
S11300508064979A90E19A95F1F700C092B3907FEB
S113006092BB92B3892B82BB979880E18A95F1F772
S113007000C00895CF93DF93C62FD82FD295D07F99
S113008082958F70E4DF6C2F8D2F82958F70DF91B6
S1130090CF91DDCF61E0EECF85EA9EE00197F1F7E5
S11300A000C0000060E082E0D2DF87EE93E00197B9
S11300B0F1F700C0000060E088E2DCDF89EF90E047
S11300C00197F1F700C0000060E081E0D3DF83EC2A
S11300D099E00197F1F700C0000060E086E0CADF14
S11300E089EF90E00197F1F700C0000060E08FE035
S11300F0C1DF89EF90E00197F1F700C00000089597
S11301000F931F93CF93DF93EC018C01060F111D06
S1130110C017D10719F08991BDDFFACFDF91CF91D4
S11301201F910F9108958FEF81BB12BA80E0B4DF65
S111013065E080E690E0E4DFFFCFF894FFCFB7
S109013E63373837390075
S9030000FC
