S00C0000436F64652E737265639D
S113000012C02CC02BC02AC029C028C08EC326C051
S113001025C024C023C022C021C020C01FC01EC0D0
S11300201DC01CC01BC011241FBECFE5D4E0DEBF21
S1130030CDBF11E0A0E6B0E0E8E5F8E102C005902C
S11300400D92AA31B107D9F721E0AAE1B1E001C0CC
S11300501D92A832B207E1F766D8FCCBD1CF86B1A6
S1130060876886B987B1806C87B9089597B1987FFE
S113007097B997B1892B87B9369A369B03C084B157
S113008095B108950895E199FECF9FBB8EBB6DBBDA
S1130090E29AE19A08951F93CF93DF93EC01172F0F
S11300A0F2DF612FCE010196EEDFDF91CF911F9138
S11300B00895E199FECF9FBB8EBBE09A8DB308955E
S11300C00F931F93CF93DF938C010196F2DFC82F18
S11300D0D0E0DC2FCC27C801ECDF9E01280F311DB6
S11300E0C901DF91CF911F910F910895979AEFE77E
S11300F0F2E03197F1F700C0000092B3907F92BB19
S113010092B3892B82BB97988FE792E00197F1F71E
S113011000C000000895CF93C82F662311F0969A6B
S113012001C096988C2F82958F70E0DF8C2F8F7092
S1130130DDDFCF91089561E0EEDF08958FE295E76A
S11301400197F1F700C0000082E0D0DF8FE39FE168
S11301500197F1F700C0000060E088E2DCDF8FEC7B
S113016097E00197F1F700C0000060E086E0D3DF7C
S11301708FEC97E00197F1F700C0000060E08CE09D
S1130180CADF8FEC97E00197F1F700C000000895F3
S11301900F931F93CF93FC018081882351F08F012B
S11301A0C0E0C9DFCF5FF801EC0FF11D8081811140
S11301B0F8CFCF911F910F91089590E4699F800D1E
S11301C0112460E08068A7DF85E88A95F1F70000D4
S11301D0089560E081E09FDF8FE99FE00197F1F7E8
S11301E000C0000008958FEF81BB12BA88E387BB7B
S11301F087E084BB15BA0895882341F08FEC97E01B
S11302000197F1F700C0000081E0089508951F935D
S1130210CF93DF932FEF84E39CE021508040904004
S1130220E1F700C00000D5DF83E690E0B1DF61E0D4
S113023070E080E0C2DF81E790E0AADF68D88091B7
S113024060009091610068D8A89AC1E0D1E010E004
S113025018C0C13031F485B3887485BBAA9AC12F04
S113026007C0C11105C085B3887485BBA89ACD2F7A
S11302702FEF89E698E1215080409040E1F700C0DB
S1130280000086B38170B8DF882319F385B38874BE
S113029085BB80D8DF91CF911F910895BF92CF92F3
S11302A0DF92EF92FF920F931F93CF93DF93AFDF11
S11302B0C4E600E010E085E0D9DE080F191F8FE6E0
S11302C097E10197F1F700C00000C150A1F7980130
S11302D03695279536952795ABE7B4E19BDA7C01F3
S11302E0F694E794C59AC4E600E010E085E0BEDE2B
S11302F0080F191F8FE697E10197F1F700C000007E
S1130300C150A1F798013695279536952795ABE707
S1130310B4E180DA6C01D694C794C598C49AC4E653
S113032000E010E084E0A2DE080F191F8FE697E1D9
S11303300197F1F700C00000C150A1F7980136956C
S1130340279536952795ABE7B4E164DA8C011695C9
S11303500795C498B70180E090E09DDEB60182E085
S113036090E099DEB80184E090E095DE32DF81E828
S113037090E00EDF61E070E080E01FDF80E3DBDE11
S11303809701369527953695279536952795A5ECAB
S1130390B0E240DA929582958F7089279F70892701
S11303A0C8EED3E08C9F90018D9F300D9C9F300D43
S11303B01124C701821B930B9C0136952795369512
S11303C02795ABE7B4E126DA96958795805DB3DE91
S11303D097013695279536952795ABE7B4E11ADA58
S11303E0969587950F2EF4E6BF2EF02DB89E9001BA
S11303F0B99E300D1124C701821B930B9C01ADECF7
S1130400BCEC08DA96958795969587959695879589
S1130410805D91DE9701ADECBCECFCD99695879597
S113042096958795969587959C01220F331F880F83
S1130430991F880F991F880F991F820F931F970187
S1130440281B390BC901805D76DE80E274DE80E30F
S113045072DE96013695279536952795369527951C
S1130460A5ECB0E2D7D9929582958F7089279F70B9
S113047089278C9F90018D9F300D9C9F300D1124F6
S1130480C601821B930B9C013695279536952795BB
S1130490ABE7B4E1BFD996958795805D4CDE9601B4
S11304A03695279536952795ABE7B4E1B3D996955C
S11304B08795B89E9001B99E300D1124C601821B08
S11304C0930B9C01ADECBCECA5D9969587959695BC
S11304D0879596958795805D2EDE9601ADECBCECF4
S11304E099D99695879596958795969587959C0124
S11304F0220F331F880F991F880F991F880F991F88
S1130500820F931F9601281B390BC901805D13DEEE
S113051080E211DE80E30FDE98013695279536954B
S1130520279536952795A5ECB0E274D992958295D6
S11305308F7089279F7089278C9F90018D9F300D24
S11305409C9F300D1124C801821B930B9C0136958E
S1130550279536952795ABE7B4E15CD996958795B1
S1130560805DE9DD98013695279536952795ABE7AB
S1130570B4E150D996958795B89E9001B99E300DF7
S11305801124C801821B930B9C01ADECBCEC42D935
S1130590969587959695879596958795805DCBDDFD
S11305A09801ADECBCEC36D99695879596958795D0
S11305B0969587959C01220F331F880F991F880FEA
S11305C0991F880F991F820F931F9801281B390BBD
S11305D0C901805DB0DD3FEF81E19AE73150804091
S11305E09040E1F700C00000DF91CF911F910F917F
S11305F0FF90EF90DF90CF90BF9008951F93CF931B
S1130600DF93E7DD2CDD81E990E0C2DDC1E0D1E0DC
S113061011E086B38170F0DD882389F0D11105C023
S1130620D8DD81EA90E0B4DD39DE2FEF84E39CE08D
S1130630215080409040E1F700C0000056C086B3CE
S11306408270DADD811146C086B38470D5DD8111F4
S113065046C061E070E0B1DDDD23D1F0CC2361F070
S113066080EB90E095DD61E070E085E0A6DD83EB52
S113067090E08EDDC0E024C088EB90E089DD61E08D
S113068070E085E09ADD83EB90E082DDC12F18C035
S113069080EB90E07DDDCC2351F061E070E085E0FB
S11306A08CDD83EB90E074DDD0E0C0E009C061E054
S11306B070E085E082DD87EB90E06ADDD0E0C12F59
S11306C02FEF84E39CE0215080409040E1F700C08C
S11306D000009FCF61E070E080E06FDDD9CF61E082
S11306E070E080E06ADDD12FB9CFDF91CF911F9107
S11306F008959B01241B350B8217930744F0460F82
S1130700571F21E0481759071CF420E001C020E0DE
S1130710822F08958EB588608EBD89B7806189BFA8
S11307208AE78BBD82E18ABD08951F920F920FB6AE
S11307300F9211248F939F9380911A0190911B0122
S1130740019690931B0180931A011DBC1CBC9F91C0
S11307508F910F900FBE0F901F901895CF92DF923C
S1130760EF92FF926DB570E0762F66278CB5682BFB
S113077080E090E00DD720E034E244EF56E474D6F4
S11307806B017C0160911A0170911B0180E090E083
S1130790FFD69B01AC01C701B60102D6FF90EF90D2
S11307A0DF90CF9008958EB584608EBD08958EB588
S11307B0887F8EBD08954F925F926F927F928F9241
S11307C09F92AF92BF92CF92DF92EF92FF9260918D
S11307D0620070E06F5E7E4F072E000C880B990B51
S11307E0D9D64B015C01C0902401D0902501E09042
S11307F02601F0902701A70196016FE273EE8DE4C4
S11308009AE332D6609320017093210180932201F0
S1130810909323012AE038E045E051E4C501B40196
S113082045D74B015C019B01AC0167E87BE48DE893
S113083095E41AD62B013C01A501940164EB77EBF6
S11308408EE095E411D69B01AC01C301B201A7D59A
S1130850A701960109D660931C0170931D01809332
S11308601E0190931F01FF90EF90DF90CF90BF90F7
S1130870AF909F908F907F906F905F904F9008956E
S11308801F93CF93DF93A5DC8BEB90E081DC2FEFFC
S113089031EE84E0215030408040E1F700C0000098
S11308A061E070E080E089DC2091600030916100BB
S11308B0369527953695279536952795A5ECB0E27C
S11308C0A9D7929582958F7089279F708927805D1B
S11308D032DC40916000509161009A013695279571
S11308E03695279536952795A5ECB0E293D7929542
S11308F082958F7089279F70892768EE73E0869FA1
S11309009001879F300D969F300D1124CA01821BE0
S1130910930B9C013695279536952795ABE7B4E163
S113092079D796958795805D06DC4091600050915B
S113093061009A013695279536952795ABE7B4E182
S113094069D79695879564E6689F9001699F300DF5
S11309501124CA01821B930B9C01ADECBCEC5AD749
S1130960969587959695879596958795805DE3DB13
S113097040916000509161009A01ADECBCEC4AD703
S11309809695879596958795969587959C01220FC0
S1130990331F880F991F880F991F880F991F820F83
S11309A0931F9A01281B390BC901805DC4DBC8EE73
S11309B0D3E014E686B381701FDC882351F03FEF47
S11309C084E39CE0315080409040E1F700C0000097
S11309D03AC186B3827010DC882309F493C08091F5
S11309E06000909161008C3B22E0920708F021C1E5
S11309F00196909361008093600061E070E080E074
S1130A00DCDB2091600030916100369527953695A6
S1130A10279536952795A5ECB0E2FCD6929582955C
S1130A208F7089279F708927805D85DB40916000E6
S1130A30509161009A0136952795369527953695FC
S1130A402795A5ECB0E2E6D6929582958F7089271A
S1130A509F7089278C9F90018D9F300D9C9F300D36
S1130A601124CA01821B930B9C0136952795369558
S1130A702795ABE7B4E1CED696958795805D5BDB91
S1130A8040916000509161009A0136952795369502
S1130A902795ABE7B4E1BED696958795189F90014C
S1130AA0199F300D1124CA01821B930B9C01ADECDC
S1130AB0BCECB0D69695879596958795969587952F
S1130AC0805D39DB40916000509161009A01ADEC8A
S1130AD0BCECA0D69695879596958795969587951F
S1130AE09C01220F331F880F991F880F991F880FAD
S1130AF0991F820F931F9A01281B390BC901805D2E
S1130B001ADB97C086B3847077DB882309F491C01D
S1130B1080916000909161008132910508F489C050
S1130B200197909361008093600061E070E080E041
S1130B3044DB20916000309161003695279536950D
S1130B40279536952795A5ECB0E264D692958295C3
S1130B508F7089279F708927805DEDDA409160004E
S1130B60509161009A0136952795369527953695CB
S1130B702795A5ECB0E24ED6929582958F70892781
S1130B809F7089278C9F90018D9F300D9C9F300D05
S1130B901124CA01821B930B9C0136952795369527
S1130BA02795ABE7B4E136D696958795805DC3DA91
S1130BB040916000509161009A01369527953695D1
S1130BC02795ABE7B4E126D696958795189F9001B3
S1130BD0199F300D1124CA01821B930B9C01ADECAB
S1130BE0BCEC18D696958795969587959695879596
S1130BF0805DA1DA40916000509161009A01ADECF2
S1130C00BCEC08D696958795969587959695879585
S1130C109C01220F331F880F991F880F991F880F7B
S1130C20991F820F931F9A01281B390BC901805DFC
S1130C3082DA3FEF80E792E0315080409040E1F764
S1130C4000C00000B7CEDF91CF911F9108951F938C
S1130C50CF93DF93BEDA85EC90E09ADA2FEF81EE42
S1130C6094E0215080409040E1F700C0000061E032
S1130C7070E080E0A2DA8091620090E068EE73E0B8
S1130C8078D580E3860F57DA80916200CDEC8C9F93
S1130C90812D11248695869586958C9F912D1124FE
S1130CA0969596959695990F292F220F220F920FBC
S1130CB0891B805D40DA809162008C9FC12D1124D4
S1130CC0C695C695C695CC0F9C2F990F990FC90F41
S1130CD08C1B805D30DAC8EED3E01DEC86B38170E6
S1130CE08BDA882351F02FEF84E39CE0215080407D
S1130CF09040E1F700C0000088C086B382707CDABF
S1130D008823D9F180916200843608F074C08F5F23
S1130D108093620061E070E080E04FDA80916200CD
S1130D2090E0BE0126D580E3860F05DA809162004B
S1130D30819F812D1124869586958695819F912D7D
S1130D401124969596959695990F292F220F220F87
S1130D50920F891B805DEFD980916200819F912D54
S1130D601124969596959695990F292F220F220F67
S1130D70920F891B805DDFD93EC086B384703CDA54
S1130D808823C9F1809162008230A8F18150809358
S1130D90620061E070E080E010DA8091620090E02F
S1130DA0BE01E7D480E3860FC6D980916200819F9B
S1130DB0812D1124869586958695819F912D1124E8
S1130DC0969596959695990F292F220F220F920F9B
S1130DD0891B805DB0D980916200819F912D11247F
S1130DE0969596959695990F292F220F220F920F7B
S1130DF0891B805DA0D92FEF80E792E021508040CD
S1130E009040E1F700C0000069CFDF91CF911F91BE
S1130E1008953F924F926F927F928F929F92AF92DA
S1130E20BF92CF92DF92EF92FF921F93CF93DF9303
S1130E3000D000D0CDB7DEB780E090E041D982E0A9
S1130E4090E03ED97C0184E090E03AD96C0162DC08
S1130E50C0D98BED90E09CD961E070E080E0ADD921
S1130E608EEC90E0992794D985B3856085BB4FD2E9
S1130E7080916000909161004FD211E06894442405
S1130E8041F80F2EF8EEAF2EF3E0BF2EF02D0F2E0B
S1130E90F4E63F2EF02D8BED90E09C0133273A834E
S1130EA0298386EE90E03C017724113009F0B3C029
S1130EB085E0DCD842E350E0B6011BDC882349F12D
S1130EC085B3887F85BBA99A6EDC83D989819A8191
S1130ED05FD961E070E080E070D9C30159D99EC048
S1130EE084E0C4D842E350E0B70103DC882309F46A
S1130EF095C05DDC33DC60932401709325018093FD
S1130F0026019093270185B3887F85BB43D253DCA8
S1130F1090C03FEF89E698E1315080409040E1F77E
S1130F2000C0000056D985E0A1D89C838B839C0126
S1130F30369527953695279536952795A5ECB0E2F5
S1130F4069D44C0196948794969487949694879444
S1130F509694879480E3880DEED88A9CC0018B9C7C
S1130F60900D9A9C900D11242B813C81281B390BE8
S1130F703695279536952795ABE7B4E14BD49695EE
S1130F808795805DD8D82B813C81369527953695F9
S1130F902795ABE7B4E13ED496958795389E9001AA
S1130FA0399E300D11248B819C81821B930B9C01F3
S1130FB0ADECBCEC2FD49695879596958795969530
S1130FC08795805DB8D82B813C81ADECBCEC22D4F4
S1130FD09695879596958795969587959C01220F6A
S1130FE0331F880F991F880F991F880F991F820F2D
S1130FF0931F2B813C81281B390BC901805D9BD831
S113100054CF3FEF89E698E1315080409040E1F7BA
S113101000C000004ACF1230A1F762CF2FEF39E6AB
S113102088E1215030408040E1F700C00000142DD9
S11310303CCF0F900F900F900F90DF91CF911F91A5
S1131040FF90EF90DF90CF90BF90AF909F908F90E4
S11310507F906F904F903F9008958F929F92AF92A0
S1131060BF92DF92EF92FF920F931F93CF93DF9380
S1131070CDB7DEB728970FB6F894DEBF0FBECDBF4D
S1131080D42E442349F010E020E030E040E251E463
S11310900DD31F5FD112F8CF4FD27E0129E0E20EAB
S11310A0F11C8E010E5F1F4F0F2EFAE08F2E912C34
S11310B0A12CB12CF02DA50194016ED3F7016293FC
S11310C07F01622F732F842F952F0E171F0799F717
S11310D0EE24E394F12C88E090E05C01AD18B108B3
S11310E0AE14BF0411F48EE226D8F80181918F0169
S11310F0805D21D8FFEFEF1AFF0A28E0E216F10421
S113110079F728960FB6F894DEBF0FBECDBFDF91F6
S1131110CF911F910F91FF90EF90DF90BF90AF9010
S11311209F908F90089578945ED808D808EE13E0C5
S1131130D4E683EF90E07C01FF2460DAA1DB87DD55
S113114068DE47D886EF90E023D860911C01709147
S11311501D0180911E0190911F0146E07EDF89EF01
S113116090E016D880E091E013D82091600030918F
S11311706100369527953695279536952795A5ECE4
S1131180B0E248D3929582958F7089279F70892702
S1131190805DD1D740916000509161009A013695ED
S11311A027953695279536952795A5ECB0E232D349
S11311B0929582958F7089279F708927809F9001CF
S11311C0819F300D909F300D1124CA01821B930B17
S11311D09C013695279536952795ABE7B4E11AD34C
S11311E096958795805DA7D74091600050916100E6
S11311F09A013695279536952795ABE7B4E10AD33E
S113120096958795D89F9001D99F300D1124CA01D6
S1131210821B930B9C01ADECBCECFCD2969587959C
S11312209695879596958795805D85D740916000C2
S1131230509161009A01ADECBCECECD29695879587
S113124096958795969587959C01220F331F880F55
S1131250991F880F991F880F991F820F931F9A0156
S1131260281B390BC901805D66D761E070E080E01E
S1131270A4D7C7018DD7609120017091210180917D
S113128022019091230146E0E8DE88E091E080D7D6
S11312908FE091E07DD760912401709125018091C8
S11312A026019091270144E0D8DE85E191E070D7D2
S11312B01FC03FEF83ED90E3315080409040E1F751
S11312C000C00000C0E160E088E125D725E82A9548
S11312D0F1F70000C150B9F73FEF83ED90E33150CF
S11312E080409040E1F700C0000060E082E013D746
S11312F086B3817081D78823E1F22FEF34E38CE049
S1131300215030408040E1F700C0000016CF12BCED
S113131088E185BD12BE08950F931F93CF938C016E
S11313208D37910598F0853F9105A0F0083E81E046
S11313301807A0F0023D83E01807A0F0083E83E000
S1131340180798F4C3E020E230E00FC0C7E020E0C3
S113135034E00BC0C6E020E031E007C0C5E020E87F
S113136030E003C0C4E020E430E040E050E060E05E
S113137072E18AE790E032D2CA01B901980140E0F3
S113138050E02CD223BD85B58C2B85BDCF911F9108
S11313900F91089585B5887F85BD13BC0895505875
S11313A0BB27AA270ED048C139D130F03ED120F056
S11313B031F49F3F11F41EF42EC10EF4E095E7FBC7
S11313C024C1E92F4AD180F3BA176207730784074F
S11313D0950718F071F49EF562C10EF4E0950B2E9A
S11313E0BA2FA02D0B01B90190010C01CA01A00173
S11313F01124FF27591B99F0593F50F4503E68F1CE
S11314001A16F040A22F232F342F4427585FF3CF0E
S1131410469537952795A795F0405395C9F77EF4DF
S11314201F16BA0B620B730B840BBAF09150A1F028
S1131430FF0FBB1F661F771F881FC2F70EC0BA0FAE
S1131440621F731F841F48F4879577956795B79536
S1131450F7959E3F08F0B3CF9395880F08F099272E
S1131460EE0F9795879508950CD0E6C0DED040F036
S1131470D5D030F021F45F3F19F0C7C0511110C12D
S1131480CAC0EBD098F39923C9F35523B1F3951B44
S1131490550BBB27AA2762177307840738F09F5F91
S11314A05F4F220F331F441FAA1FA9F333D00E2E00
S11314B03AF0E0E830D091505040E695001CCAF76D
S11314C029D0FE2F27D0660F771F881FBB1F261732
S11314D037074807AB07B0E809F0BB0B802DBF0105
S11314E0FF2793585F4F2AF09E3F510568F08DC047
S11314F0D7C05F3FECF3983EDCF38695779567950C
S1131500B795F7959F5FC9F7880F911D96958795B5
S113151097F90895E1E0660F771F881FBB1F6217D4
S113152073078407BA0720F0621B730B840BBA0B92
S1131530EE1F88F7E095089598D088F09F5790F0B3
S1131540B92F9927B751A0F0D1F0660F771F881FE4
S1131550991F1AF0BA95C9F712C0B13081F09FD023
S1131560B1E008959CC0672F782F8827B85F39F0C1
S1131570B93FCCF3869577956795B395D9F73EF443
S113158090958095709561957F4F8F4F9F4F0895EB
S1131590E89409C097FB3EF4909580957095619509
S11315A07F4F8F4F9F4F9923A9F0F92F96E9BB27BF
S11315B09395F695879577956795B795F111F8CF3B
S11315C0FAF4BB0F11F460FF1BC06F5F7F4F8F4FA6
S11315D09F4F16C0882311F096E911C0772321F09C
S11315E09EE8872F762F05C0662371F096E8862F34
S11315F070E060E02AF09A95660F771F881FDAF78B
S1131600880F9695879597F9089597F99F6780E8CD
S113161070E060E008959FEF80EC089500240A9440
S11316201616170618060906089500240A941216B9
S11316301306140605060895092E0394000C11F4EC
S1131640882352F0BB0F40F4BF2B11F460FF04C099
S11316506F5F7F4F8F4F9F4F089557FD9058440FF2
S1131660551F59F05F3F71F04795880F97FB991FFD
S113167061F09F3F79F087950895121613061406BA
S1131680551FF2CF4695F1DF08C016161706180647
S1131690991FF1CF86957105610508940895E89422
S11316A0BB2766277727CB0197F908950BD0C4CFC2
S11316B0B5DF28F0BADF18F0952309F0A6CFABCF39
S11316C01124EECFCADFA0F3959FD1F3950F50E01C
S11316D0551F629FF001729FBB27F00DB11D639FE0
S11316E0AA27F00DB11DAA1F649F6627B00DA11D86
S11316F0661F829F2227B00DA11D621F739FB00D2C
S1131700A11D621F839FA00D611D221F749F33279B
S1131710A00D611D231F849F600D211D822F762F34
S11317206A2F11249F5750408AF0E1F088234AF031
S1131730EE0FFF1FBB1F661F771F881F915050407D
S1131740A9F79E3F510570F060CFAACF5F3FECF33D
S1131750983EDCF3869577956795B795F795E79569
S11317609F5FC1F7FE2B880F911D9695879597F97A
S1131770089597FB072E16F4009406D077FD08D041
S113178055D007FC05D03EF4909581959F4F089560
S1131790709561957F4F0895A1E21A2EAA1BBB1B79
S11317A0FD010DC0AA1FBB1FEE1FFF1FA217B30729
S11317B0E407F50720F0A21BB30BE40BF50B661F3F
S11317C0771F881F991F1A9469F760957095809503
S11317D090959B01AC01BD01CF010895052E97FBA7
S11317E016F400940FD057FD05D0D6DF07FC02D0C5
S11317F046F408C050954095309521953F4F4F4F82
S11318005F4F089590958095709561957F4F8F4FA8
S11318109F4F0895A29FB001B39FC001A39F01D021
S1131820B29F700D811D1124911D0895AA1BBB1B2D
S113183051E107C0AA1FBB1FA617B70710F0A61BCC
S1131840B70B881F991F5A95A9F780959095BC01ED
S10B1850CD010895F894FFCFC7
S1131858C800145072657373204F4B207468656E0A
S113186800776174206C762061626F766520683237
S11318780054657374696E6720726573756C743A85
S11318880043616C6962726174652073656E733FAD
S11318980043616C6962726174696E672E2E2E0052
S11318A84E6F00596573002020200043686F6F73E2
S11318B86520487A0043686F6F7365205400537439
S11318C86167652031206F6620320054657374693E
S11318D86E672E2E2E0053746167652032206F6662
S11318E8203200563A004D3A005B6B672F735D0057
S11318F853657420487A3A005B6D332F735D004555
S10D19086C20743A005B635D00007C
S9030000FC
