:1000000012C02CC02BC02AC029C028C0C6C026C020
:1000100025C024C023C022C021C020C01FC01EC0D4
:100020001DC01CC01BC011241FBECFE5D4E0DEBF25
:10003000CDBF10E0A0E6B0E0E2EDF3E002C0059035
:100040000D92AC3CB107D9F720E0ACECB0E001C0B8
:100050001D92AE3CB207E1F7B9D0B9C1D1CF86B19C
:10006000876886B987B1806C87B90895E3EFF1E0BE
:100070003197F1F700C0000097B1987F97B997B119
:10008000892B87B9369A369B03C084B195B1089500
:100090000895979A9AE69A95F1F700C092B3907FE7
:1000A00092BB92B3892B82BB97988AE68A95F1F727
:1000B00000C00895CF93C82F662311F0969A01C00F
:1000C00096988C2F82958F70E4DF8C2F8F70E1DFF4
:1000D000CF91089561E0EEDF089585EA9EE00197F3
:1000E000F1F700C0000082E0D4DF87EE93E00197D3
:1000F000F1F700C0000060E088E2DCDF89EF90E00B
:100100000197F1F700C0000060E086E0D3DF89EFDF
:1001100090E00197F1F700C0000060E08CE0CADFDA
:1001200089EF90E00197F1F700C0000008950F9368
:100130001F93CF93FC018081882351F08F01C0E091
:10014000C9DFCF5FF801EC0FF11D80818111F8CF7D
:10015000CF911F910F91089590E4699F800D112414
:1001600060E08068A7DF80E18A95F1F700C008951C
:1001700060E081E09FDF87E893E10197F1F700C03D
:10018000000008958FEF81BB12BA88E387BB80E33C
:1001900088BB87E084BB85BB08951F920F920FB682
:1001A0000F9211248F939F938091CC009091CD005A
:1001B00001969093CD008093CC001DBC1CBC9F91F8
:1001C0008F910F900FBE0F901F9018957894DADFE3
:1001D00084DF82EC90E0ABDF42DF2FEF39E688E18D
:1001E000215030408040E1F700C0000008EE13E0ED
:1001F0000F2EF4E6FF2EF02D85E038DFEC01B8DF9E
:1002000061E070E080E0A8DF9E0136952795369585
:10021000279536952795A5ECB0E2CDD06C01D69404
:10022000C794D694C794D694C794D694C79480E3C1
:100230008C0D50DFC09EC001C19E900DD09E900DD0
:1002400011249E01281B390B369527953695279545
:10025000ABE7B4E1B0D096958795805D3BDF9E011A
:100260003695279536952795ABE7B4E1A4D09695BA
:100270008795F89E9001F99E300D1124CE01821BC6
:10028000930B9C01ADECBCEC96D09695879596951A
:10029000879596958795805D1DDF9E01ADECBCEC42
:1002A0008AD09695879596958795969587959C0182
:1002B000220F331F880F991F880F991F880F991FCE
:1002C000820F931F9E01281B390BC901805D02DF3D
:1002D00080E200DF84E0CADEEC019C0136952795C0
:1002E0003695279536952795A5ECB0E264D06C013C
:1002F000D694C794D694C794D694C794D694C794EA
:1003000080E38C0DE7DEC09EC001C19E900DD09EA3
:10031000900D11249E01281B390B36952795369593
:100320002795ABE7B4E147D096958795805DD2DEFF
:100330009E013695279536952795ABE7B4E13BD0DE
:1003400096958795F89E9001F99E300D1124CE0167
:10035000821B930B9C01ADECBCEC2DD09695879540
:100360009695879596958795805DB4DE9E01ADEC58
:10037000BCEC21D09695879596958795969587950F
:100380009C01220F331F880F991F880F991F880F18
:10039000991F820F931F9E01281B390BC901805D95
:1003A00099DE3FEF89E698E1315080409040E1F7D7
:1003B00000C0000021CFA29FB001B39FC001A39F46
:1003C00001D0B29F700D811D1124911D0895F894E4
:0203D000FFCF5D
:1003D20043616C6962726174652073656E733F007C
:1003E20043616C6962726174696E672E2E2E004ED3
:1003F2006F00596573002020200043686F6F73659A
:1004020020487A0043686F6F73652054005374610B
:1004120067652031206F6620320054657374696EFF
:10042200672E2E2E0053746167652032206F66207E
:0C0432003200617764617764617700003C
:00000001FF
