S00C0000436F64652E737265639D
S113000012C02CC02BC02AC029C028C0DBC026C007
S113001025C024C023C022C021C020C01FC01EC0D0
S11300201DC01CC01BC011241FBECFE5D4E0DEBF21
S1130030CDBF10E0A0E6B0E0E6E8F3E102C0059031
S11300400D92A23CB107D9F720E0A2ECB0E001C0C8
S11300501D92A03DB207E1F701D693C9D1CF86B175
S1130060876886B987B1806C87B90895E3EFF1E0BA
S11300703197F1F700C0000097B1987F97B997B115
S1130080892B87B9369A369B03C084B195B10895FC
S11300900895979A9AE69A95F1F700C092B3907FE3
S11300A092BB92B3892B82BB97988AE68A95F1F723
S11300B000C00895CF93C82F662311F0969A01C00B
S11300C096988C2F82958F70E4DF8C2F8F70E1DFF0
S11300D0CF91089561E0EEDF089585EA9EE00197EF
S11300E0F1F700C0000082E0D4DF87EE93E00197CF
S11300F0F1F700C0000060E088E2DCDF89EF90E007
S11301000197F1F700C0000060E086E0D3DF89EFDB
S113011090E00197F1F700C0000060E08CE0CADFD6
S113012089EF90E00197F1F700C0000008950F9364
S11301301F93CF93FC018081882351F08F01C0E08D
S1130140C9DFCF5FF801EC0FF11D80818111F8CF79
S1130150CF911F910F91089590E4699F800D112410
S113016060E08068A7DF80E18A95F1F700C0089518
S113017060E081E09FDF87E893E10197F1F700C039
S1130180000008958FEF81BB88E387BB80E388BBC1
S113019087E084BB85BB0895882341F08FEC97E00A
S11301A00197F1F700C0000081E0089508958EB52D
S11301B088608EBD89B7806189BF8AE78BBD82E183
S11301C08ABD08951F920F920FB60F9211248F9338
S11301D09F938091C2009091C30001969093C300B5
S11301E08093C2001DBC1CBC9F918F910F900FBEC9
S11301F00F901F901895CF92DF92EF92FF926DB5FA
S113020070E0762F66278CB5682B80E090E057D796
S113021020E034E244EF56E4BED66B017C016091E9
S1130220C2007091C30080E090E049D79B01AC010B
S1130230C701B6014CD6FF90EF90DF90CF900895A0
S11302408EB584608EBD08958EB5887F8EBD089569
S11302504F925F926F927F928F929F92AF92BF92D2
S1130260CF92DF92EF92FF926091620070E06F5E36
S11302707E4F072E000C880B990B23D74B015C0192
S1130280C090CC00D090CD00E090CE00F090CF0094
S1130290A70196016FE273EE8DE49AE37CD6609336
S11302A0C8007093C9008093CA009093CB002AE0E1
S11302B038E045E051E4C501B4018FD74B015C013E
S11302C09B01AC0167E87BE48DE895E464D62B01DF
S11302D03C01A501940164EB77EB8EE095E45BD6D9
S11302E09B01AC01C301B201F1D5A701960153D61C
S11302F06093C4007093C5008093C6009093C700B8
S1130300FF90EF90DF90CF90BF90AF909F908F9031
S11303107F906F905F904F9008951F93CF93DF93DA
S113032027DF83E690E003DF2FEF31EE84E02150F6
S113033030408040E1F700C0000061E070E080E000
S11303400BDF20916000309161003695279536953A
S1130350279536952795A5ECB0E2F3D7929582952B
S11303608F7089279F708927805DB4DE409160007B
S1130370509161009A0136952795369527953695C3
S11303802795A5ECB0E2DDD7929582958F708927E9
S11303909F70892768EE73E0869F9001879F300DD8
S11303A0969F300D1124CA01821B930B9C01369534
S11303B0279536952795ABE7B4E1C3D796958795EE
S11303C0805D88DE40916000509161009A0136950D
S11303D0279536952795ABE7B4E1B3D796958795DE
S11303E064E6689F9001699F300D1124CA01821B45
S11303F0930B9C01ADECBCECA4D796958795969590
S1130400879596958795805D65DE40916000509153
S113041061009A01ADECBCEC94D7969587959695BE
S11304208795969587959C01220F331F880F991FF6
S1130430880F991F880F991F820F931F9A01281BF9
S1130440390BC901805D46DEC8EED3E014E686B3FD
S11304508170A2DE882351F03FEF84E39CE03150A9
S113046080409040E1F700C000003AC186B382703A
S113047093DE882309F493C0809160009091610019
S11304808C3B22E0920708F021C101969093610011
S11304908093600061E070E080E05EDE20916000A7
S11304A03091610036952795369527953695279591
S11304B0A5ECB0E246D7929582958F7089279F70FC
S11304C08927805D07DE40916000509161009A01A8
S11304D0369527953695279536952795A5ECB0E260
S11304E030D7929582958F7089279F7089278C9F2A
S11304F090018D9F300D9C9F300D1124CA01821BE9
S1130500930B9C013695279536952795ABE7B4E177
S113051018D796958795805DDDDD409160005091F8
S113052061009A013695279536952795ABE7B4E196
S113053008D796958795189F9001199F300D11241F
S1130540CA01821B930B9C01ADECBCECFAD69695C8
S113055087959695879596958795805DBBDD4091A7
S11305606000509161009A01ADECBCECEAD696951E
S1130570879596958795969587959C01220F331FAD
S1130580880F991F880F991F880F991F820F931F37
S11305909A01281B390BC901805D9CDD97C086B385
S11305A08470FADD882309F491C0809160009091F1
S11305B061008531910508F489C001979093610029
S11305C08093600061E070E080E0C6DD209160000F
S11305D03091610036952795369527953695279560
S11305E0A5ECB0E2AED6929582958F7089279F7064
S11305F08927805D6FDD40916000509161009A0110
S1130600369527953695279536952795A5ECB0E22E
S113061098D6929582958F7089279F7089278C9F91
S113062090018D9F300D9C9F300D1124CA01821BB7
S1130630930B9C013695279536952795ABE7B4E146
S113064080D696958795805D45DD409160005091F8
S113065061009A013695279536952795ABE7B4E165
S113066070D696958795189F9001199F300D112487
S1130670CA01821B930B9C01ADECBCEC62D696952F
S113068087959695879596958795805D23DD40910E
S11306906000509161009A01ADECBCEC52D6969585
S11306A0879596958795969587959C01220F331F7C
S11306B0880F991F880F991F880F991F820F931F06
S11306C09A01281B390BC901805D04DD3FEF80E7E7
S11306D092E0315080409040E1F700C00000B7CE76
S11306E0DF91CF911F9108951F93CF93DF9340DD46
S11306F08DE690E01CDD2FEF81EE94E021508040E8
S11307009040E1F700C0000061E070E080E024DD8B
S11307108091620090E068EE73E0C2D580E3860FBA
S1130720D9DC80916200CDEC8C9F812D11248695BB
S1130730869586958C9F912D1124969596959695E0
S1130740990F292F220F220F920F891B805DC2DC83
S1130750809162008C9FC12D1124C695C695C695C3
S1130760CC0F9C2F990F990FC90F8C1B805DB2DCA5
S1130770C8EED3E01DEC86B381700EDD882351F002
S11307802FEF84E39CE0215080409040E1F700C0CB
S1130790000088C086B38270FFDC8823D9F1809181
S11307A06200843608F074C08F5F8093620061E059
S11307B070E080E0D1DC8091620090E0BE0170D5F1
S11307C080E3860F87DC80916200819F812D112454
S11307D0869586958695819F912D1124969596955B
S11307E09695990F292F220F220F920F891B805D56
S11307F071DC80916200819F912D112496959695CC
S11308009695990F292F220F220F920F891B805D35
S113081061DC3EC086B38470BFDC8823C9F180915B
S113082062008230A8F181508093620061E070E040
S113083080E092DC8091620090E0BE0131D580E3DB
S1130840860F48DC80916200819F812D112486955A
S113085086958695819F912D1124969596959695CA
S1130860990F292F220F220F920F891B805D32DCF2
S113087080916200819F912D11249695969596956D
S1130880990F292F220F220F920F891B805D22DCE2
S11308902FEF80E792E0215080409040E1F700C0C4
S11308A0000069CFDF91CF911F9108952F923F925D
S11308B05F926F927F928F929F92AF92BF92CF92EC
S11308C0DF92EF92FF920F931F93CF93DF93C7DBD7
S11308D06EDC4EDC83E890E02ADC61E070E080E0CE
S11308E03BDC86E790E05C01BB24C50120DC8AEF99
S11308F085BBA4D28091600090916100A4D2C1E034
S11309000F2EF8EEEF2EF3E0FF2EF02D0F2EF4E66F
S11309107F2EF02D8EE890E06C01DD24689466242F
S113092061F80F2EFDEF5F2EF02D83E890E04C016F
S11309309924C130D9F584E099DBC29708F4A7C0A3
S113094085E094DB8734910508F0A1C055BA78DCC2
S11309500FDCC401ECDB61E070E080E0FDDBC6018C
S1130960E6DB27C085E082DB8A38924010F184E020
S11309707DDB83359340E8F467DC3DDC6093CC0099
S11309807093CD008093CE009093CF0085B38760A1
S113099085BB97D25DDCEAC08FEF94E32CE08150F5
S11309A090402040E1F700C00000C3CFC230A1F75F
S11309B0D9CFDEDB85E05ADBEC019C013695279527
S11309C03695279536952795A5ECB0E2BAD48C01D7
S11309D0129502950F7001271F70012780E3800F85
S11309E079DB0E9DC0010F9D900D1E9D900D11246D
S11309F09E01281B390B3695279536952795ABE72D
S1130A00B4E19FD496958795805D64DB9E0136950D
S1130A10279536952795ABE7B4E193D496958795BA
S1130A20789E9001799E300D1124CE01821B930B88
S1130A309C01ADECBCEC85D49695879596958795ED
S1130A4096958795805D46DB9E01ADECBCEC79D430
S1130A509695879596958795969587959C01220FEF
S1130A60331F880F991F880F991F880F991F820FB2
S1130A70931F9E01281B390BC901805D2BDB61E0AC
S1130A8070E080E069DBC60152DBC62D85CF70DBE8
S1130A9084E0ECDA8C019C013695279536952795F0
S1130AA036952795A5ECB0E24CD41C0136942794D6
S1130AB036942794369427943694279480E3820DB1
S1130AC009DB2E9CC0012F9C900D3E9C900D11249F
S1130AD09801281B390B3695279536952795ABE752
S1130AE0B4E12FD496958795805DF4DA9801369514
S1130AF0279536952795ABE7B4E123D4969587954A
S1130B00789E9001799E300D1124C801821B930BAD
S1130B109C01ADECBCEC15D496958795969587957C
S1130B2096958795805DD6DA9801ADECBCEC09D436
S1130B309695879596958795969587959C01220F0E
S1130B40331F880F991F880F991F880F991F820FD1
S1130B50931F9801281B390BC901805DBBDA61E042
S1130B6070E080E0F9DAC501E2DA16CFDF91CF91C7
S1130B701F910F91FF90EF90DF90CF90BF90AF90B7
S1130B809F908F907F906F905F903F902F900895EB
S1130B908F929F92AF92BF92DF92EF92FF920F9348
S1130BA01F93CF93DF93CDB7DEB728970FB6F89492
S1130BB0DEBF0FBECDBFD42E442349F010E020E0A9
S1130BC030E040E251E409D31F5FD112F8CF4BD299
S1130BD07E0129E0E20EF11C8E010E5F1F4F0F2EE5
S1130BE0FAE08F2E912CA12CB12CF02DA5019401AB
S1130BF06AD3F70162937F01622F732F842F952F9D
S1130C000E171F0799F7EE24E394F12C88E090E087
S1130C105C01AD18B108AE14BF0411F48EE25ADAC7
S1130C20F80181918F01805D55DAFFEFEF1AFF0A19
S1130C3028E0E216F10479F728960FB6F894DEBF9F
S1130C400FBECDBFDF91CF911F910F91FF90EF9019
S1130C50DF90BF90AF909F908F900895789492DA30
S1130C603CDA08EE13E0D4E658DB3EDD1FDE80DA22
S1130C708BE990E05CDA6091C4007091C5008091CA
S1130C80C6009091C70046E083DF8EE990E04FDA1A
S1130C9085EA90E04CDA209160003091610036954D
S1130CA027953695279536952795A5ECB0E249D337
S1130CB0929582958F7089279F708927805D0ADAC3
S1130CC040916000509161009A01369527953695C0
S1130CD0279536952795A5ECB0E233D39295829566
S1130CE08F7089279F708927809F9001819F300D85
S1130CF0909F300D1124CA01821B930B9C013695E1
S1130D00279536952795ABE7B4E11BD39695879540
S1130D10805DE0D940916000509161009A01369560
S1130D20279536952795ABE7B4E10BD39695879530
S1130D30D89F9001D99F300D1124CA01821B930BB7
S1130D409C01ADECBCECFDD2969587959695879564
S1130D5096958795805DBED9409160005091610061
S1130D609A01ADECBCECEDD2969587959695879556
S1130D70969587959C01220F331F880F991F880F22
S1130D80991F880F991F820F931F9A01281B390BF3
S1130D90C901805D9FD961E070E080E0DDD98DEA12
S1130DA090E0C5D96091C8007091C9008091CA00D3
S1130DB09091CB0046E0ECDE80EB90E0B8D987EB75
S1130DC090E0B5D96091CC007091CD008091CE00B7
S1130DD09091CF0044E0DCDE8DEB90E0A8D91FC0F9
S1130DE03FEF83ED90E3315080409040E1F700C045
S1130DF00000C0E160E088E15DD925E82A95F1F7BB
S1130E000000C150B9F73FEF83ED90E331508040CB
S1130E109040E1F700C0000060E082E04BD986B367
S1130E208170BAD98823E1F22FEF34E38CE02150AA
S1130E3030408040E1F700C0000016CF12BC88E1CA
S1130E4085BD12BE08950F931F93CF938C018D37E8
S1130E50910598F0853F9105A0F0083E81E01807C0
S1130E60A0F0023D83E01807A0F0083E83E01807D5
S1130E7098F4C3E020E230E00FC0C7E020E034E0A3
S1130E800BC0C6E020E031E007C0C5E020E830E058
S1130E9003C0C4E020E430E040E050E060E072E1F0
S1130EA08AE790E032D2CA01B901980140E050E0EB
S1130EB02CD223BD85B58C2B85BDCF911F910F916D
S1130EC0089585B5887F85BD13BC08955058BB2708
S1130ED0AA270ED048C139D130F03ED120F031F4E8
S1130EE09F3F11F41EF42EC10EF4E095E7FB24C1DC
S1130EF0E92F4AD180F3BA1762077307840795076D
S1130F0018F071F49EF562C10EF4E0950B2EBA2F21
S1130F10A02D0B01B90190010C01CA01A0011124FB
S1130F20FF27591B99F0593F50F4503E68F11A16A7
S1130F30F040A22F232F342F4427585FF3CF469538
S1130F4037952795A795F0405395C9F77EF41F165A
S1130F50BA0B620B730B840BBAF09150A1F0FF0F24
S1130F60BB1F661F771F881FC2F70EC0BA0F621F10
S1130F70731F841F48F4879577956795B795F79500
S1130F809E3F08F0B3CF9395880F08F09927EE0F92
S1130F909795879508950CD0E6C0DED040F0D5D063
S1130FA030F021F45F3F19F0C7C0511110C1CAC01D
S1130FB0EBD098F39923C9F35523B1F3951B550B43
S1130FC0BB27AA2762177307840738F09F5F5F4F18
S1130FD0220F331F441FAA1FA9F333D00E2E3AF059
S1130FE0E0E830D091505040E695001CCAF729D073
S1130FF0FE2F27D0660F771F881FBB1F26173707C2
S11310004807AB07B0E809F0BB0B802DBF01FF27F1
S113101093585F4F2AF09E3F510568F08DC0D7C0AA
S11310205F3FECF3983EDCF3869577956795B7952B
S1131030F7959F5FC9F7880F911D9695879597F946
S11310400895E1E0660F771F881FBB1F62177307BF
S11310508407BA0720F0621B730B840BBA0BEE1FD4
S113106088F7E095089598D088F09F5790F0B92FAD
S11310709927B751A0F0D1F0660F771F881F991FE9
S11310801AF0BA95C9F712C0B13081F09FD0B1E01F
S113109008959CC0672F782F8827B85F39F0B93F2F
S11310A0CCF3869577956795B395D9F73EF49095EB
S11310B08095709561957F4F8F4F9F4F0895E89469
S11310C009C097FB3EF490958095709561957F4F8C
S11310D08F4F9F4F9923A9F0F92F96E9BB2793953A
S11310E0F695879577956795B795F111F8CFFAF44A
S11310F0BB0F11F460FF1BC06F5F7F4F8F4F9F4F7B
S113110016C0882311F096E911C0772321F09EE8D8
S1131110872F762F05C0662371F096E8862F70E03E
S113112060E02AF09A95660F771F881FDAF7880F18
S11311309695879597F9089597F99F6780E870E0E9
S113114060E008959FEF80EC089500240A94161639
S1131150170618060906089500240A9412161306A1
S1131160140605060895092E0394000C11F488232F
S113117052F0BB0F40F4BF2B11F460FF04C06F5F4B
S11311807F4F8F4F9F4F089557FD9058440F551F21
S113119059F05F3F71F04795880F97FB991F61F0F5
S11311A09F3F79F087950895121613061406551F6C
S11311B0F2CF4695F1DF08C0161617061806991FD8
S11311C0F1CF86957105610508940895E894BB27CD
S11311D066277727CB0197F908950BD0C4CFB5DFE5
S11311E028F0BADF18F0952309F0A6CFABCF11246D
S11311F0EECFCADFA0F3959FD1F3950F50E0551FB2
S1131200629FF001729FBB27F00DB11D639FAA2757
S1131210F00DB11DAA1F649F6627B00DA11D661FA6
S1131220829F2227B00DA11D621F739FB00DA11DC7
S1131230621F839FA00D611D221F749F3327A00D81
S1131240611D231F849F600D211D822F762F6A2F1D
S113125011249F5750408AF0E1F088234AF0EE0FA2
S1131260FF1FBB1F661F771F881F91505040A9F7AF
S11312709E3F510570F060CFAACF5F3FECF3983EDC
S1131280DCF3869577956795B795F795E7959F5F16
S1131290C1F7FE2B880F911D9695879597F90895B0
S11312A097FB072E16F4009406D077FD08D055D08E
S11312B007FC05D03EF4909581959F4F0895709555
S11312C061957F4F0895A1E21A2EAA1BBB1BFD0155
S11312D00DC0AA1FBB1FEE1FFF1FA217B307E40711
S11312E0F50720F0A21BB30BE40BF50B661F771F69
S11312F0881F991F1A9469F7609570958095909549
S11313009B01AC01BD01CF010895052E97FB16F496
S113131000940FD057FD05D0D6DF07FC02D046F469
S113132008C050954095309521953F4F4F4F5F4FE2
S1131330089590958095709561957F4F8F4F9F4F3D
S11313400895A29FB001B39FC001A39F01D0B29F93
S1131350700D811D1124911D0895AA1BBB1B51E121
S113136007C0AA1FBB1FA617B70710F0A61BB70B11
S1131370881F991F5A95A9F780959095BC01CD01B6
S10913800895F894FFCF6C
S1131386C8001443686F6F736520487A0043686F1A
S11313966F736520540053746167652031206F664E
S11313A620320054657374696E672E2E2E005374B2
S11313B66167652032206F662032004D3A005B6B10
S11313C6672F735D0053657420487A3A00563A00D5
S11313D65B6D332F735D00456C20743A005B635D6F
S10513E6000001
S9030000FC
