:1000000012C02CC02BC02AC029C028C0B2C126C033
:1000100025C024C023C022C021C020C01FC01EC0D4
:100020001DC01CC01BC011241FBECFE5D4E0DEBF25
:10003000CDBF11E0A0E6B0E0E6EDF9E002C005902A
:100040000D92A030B107D9F721E0A0E0B1E001C0E6
:100050001D92AF30B207E1F7BBD2BBC4D1CF86B19E
:10006000876886B987B1806C87B9089597B1892B65
:1000700087B9369A369B03C084B195B10895089527
:10008000979A9AE69A95F1F700C092B3907F92BB47
:1000900092B3892B82BB97988AE68A95F1F700C0C4
:1000A0000895CF93C82F662311F0969A01C09698B1
:1000B0008C2F82958F70E4DF8C2F8F70E1DFCF91D2
:1000C000089561E0EEDF089585EA9EE00197F1F77B
:1000D00000C0000082E0D4DF87EE93E00197F1F7E3
:1000E00000C0000060E088E2DCDF89EF90E001976B
:1000F000F1F700C0000060E086E0D3DF89EF90E018
:100100000197F1F700C0000060E08CE0CADF89EFE2
:1001100090E00197F1F700C0000008950F931F933E
:10012000CF93FC018081882351F08F01C0E0C9DFAB
:10013000CF5FF801EC0FF11D80818111F8CFCF91D5
:100140001F910F91089590E4699F800D112460E044
:100150008068A7DF8DE08A95F1F7000008958FEFA2
:1001600081BB12BA88E387BB87E084BB15BA0895C8
:10017000882341F089EF90E00197F1F700C000007B
:1001800081E0089508950F931F93CF93C4E600E094
:1001900010E085E06BDF080F191F8DEE92E00197EC
:1001A000F1F700C00000C150A1F7980136952795DE
:1001B00036952795ABE7B4E100D496958795909353
:1001C000020180930101C59AC4E600E010E085E0D9
:1001D0004DDF080F191F8DEE92E00197F1F700C077
:1001E0000000C150A1F798013695279536952795BF
:1001F000ABE7B4E1E2D39695879590930E01809397
:100200000D01C598C49AC4E600E010E084E02EDF3A
:10021000080F191F8DEE92E00197F1F700C0000062
:10022000C150A1F798013695279536952795ABE7EC
:10023000B4E1C3D39695879590930401809303010D
:10024000C498CF911F910F9108951F93CF93DF937F
:1002500084E690E063DFC1E0D1E011E086B3817015
:1002600087DF882381F0D11164C060E081E019DF6D
:1002700083EF91E00197F1F700C0000084E790E080
:100280004DDF81DF56C086B3827072DF81114CC0B2
:1002900086B384706DDF811141C061E070E053DF8F
:1002A000DD23D1F0CC2361F083E890E037DF61E01B
:1002B00070E085E048DF86E890E030DFC0E024C0F1
:1002C0008BE890E02BDF61E070E085E03CDF86E8C2
:1002D00090E024DFC12F18C083E890E01FDFCC231B
:1002E00051F061E070E085E02EDF86E890E016DFF7
:1002F000D0E0C0E009C061E070E085E024DF8AE87A
:1003000090E00CDFD0E0C12F9FE52AEE80E0915015
:1003100020408040E1F700C00000A0CF61E070E025
:1003200080E011DFD12FBECF61E070E080E00BDF15
:10033000D3CFDF91CF911F9108959B01241B350BE3
:100340008217930744F0460F571F21E048175907BB
:100350001CF420E001C020E0822F08958EB5886053
:100360008EBD89B7806189BF8AE78BBD82E18ABD76
:1003700008951F920F920FB60F9211248F938091C0
:1003800000018F5F809300011DBC1CBC8F910F90FA
:100390000FBE0F901F901895CF92DF92EF92FF92B1
:1003A0006DB570E0762F66278CB5682B072E000C94
:1003B000880B990B13D220E034E244EF56E4A4D129
:1003C0006B017C016091000170E080E090E006D25A
:1003D0009B01AC01C701B60133D1FF90EF90DF90D4
:1003E000CF9008958EB584608EBD08958EB5887FB8
:1003F0008EBD08954F925F926F927F928F929F92DF
:10040000AF92BF92CF92DF92EF92FF92C5DF6B0166
:100410007C019B01AC016FE273EE8DE49AE374D131
:100420006093090170930A0180930B0190930C0172
:100430006091600070916100809162009091630012
:10044000CDD14B015C0120E030E04AEF54E4F7D01D
:100450002FE233EE4DEC5AE34DD22AE037ED47EE72
:1004600051E448D223E332E448E155E44DD12B0175
:100470003C0120E030E04AE754E4C501B401DFD09C
:100480002FE233EE4DE45AE335D22AE037ED47EE62
:1004900051E430D223E332E448E155E435D19B0105
:1004A000AC01C301B201CBD0A70196012DD160935D
:1004B0000501709306018093070190930801FF9056
:1004C000EF90DF90CF90BF90AF909F908F907F90F4
:1004D0006F905F904F9008950F931F93CF93DF938A
:1004E00060E081E0DEDD83EF91E00197F1F700C08D
:1004F00000008AEB90E012DEA99A0EE810E01127C6
:10050000C0910301D091040185E0B0DD42E350E0E9
:10051000BE0113DF882331F185B3837F85BB9FE361
:1005200022E48FE0915020408040E1F700C00000BD
:10053000C0910301D091040185E098DD42E350E0D1
:10054000BE01FBDE8111DCCFA89A4CDF60E081E0C8
:10055000A8DD83EF91E00197F1F700C00000C8012A
:10056000DDDDCECFC0910D01D0910E0184E07EDDA6
:1005700042E350E0BE01E1DE882311F237DFA998A3
:100580009FE322E48FE0915020408040E1F700C0DB
:100590000000C0910D01D0910E0184E067DD42E3BF
:1005A00050E0BE01CADE8111ABCF60E081E079DDB1
:1005B00083EF91E00197F1F700C0000084EA90E03A
:1005C0009927ACDD17DFDF91CF911F910F9108952F
:1005D000109200017894C3DD77DD41DD28D0BEDEC6
:1005E000C0EDD0E0DD2731DE77DF60E081E059DD6E
:1005F00083EF91E00197F1F700C0000082EE90E0F8
:100600008DDD82EF90E08ADD61E070E080E09BDDCF
:10061000CE0184DD89EF90E081DD9FEF24EE80E163
:10062000915020408040E1F700C00000DCCF12BCB8
:100630008CE685BD14BC13BC89B789BF089550589A
:10064000BB27AA270ED01CC10DD130F012D120F04B
:1006500031F49F3F11F41EF402C10EF4E095E7FB64
:10066000F8C0E92F1ED180F3BA1762077307840719
:10067000950718F071F49EF536C10EF4E0950B2E37
:10068000BA2FA02D0B01B90190010C01CA01A001E4
:100690001124FF27591B99F0593F50F4503E68F13F
:1006A0001A16F040A22F232F342F4427585FF3CF80
:1006B000469537952795A795F0405395C9F77EF451
:1006C0001F16BA0B620B730B840BBAF09150A1F09A
:1006D000FF0FBB1F661F771F881FC2F70EC0BA0F20
:1006E000621F731F841F48F4879577956795B795A8
:1006F000F7959E3F08F0B3CF9395880F08F09927A0
:10070000EE0F9795879508950CD0BAC0B2D040F0FF
:10071000A9D030F021F45F3F19F09BC05111E4C023
:100720009EC0BFD098F39923C9F35523B1F3951B0D
:10073000550BBB27AA2762177307840738F09F5F02
:100740005F4F220F331F441FAA1FA9F333D00E2E71
:100750003AF0E0E830D091505040E695001CCAF7DE
:1007600029D0FE2F27D0660F771F881FBB1F2617A3
:1007700037074807AB07B0E809F0BB0B802DBF0176
:10078000FF2793585F4F2AF09E3F510568F061C0E4
:10079000ABC05F3FECF3983EDCF3869577956795A9
:1007A000B795F7959F5FC9F7880F911D9695879527
:1007B00097F90895E1E0660F771F881FBB1F621746
:1007C00073078407BA0720F0621B730B840BBA0B04
:1007D000EE1F88F7E0950895E89409C097FB3EF472
:1007E00090958095709561957F4F8F4F9F4F99237E
:1007F000A9F0F92F96E9BB279395F69587957795FC
:100800006795B795F111F8CFFAF4BB0F11F460FFBB
:100810001BC06F5F7F4F8F4F9F4F16C0882311F013
:1008200096E911C0772321F09EE8872F762F05C027
:10083000662371F096E8862F70E060E02AF09A95C2
:10084000660F771F881FDAF7880F9695879597F9B7
:10085000089597F99F6780E870E060E008959FEF42
:1008600080EC089500240A94161617061806090647
:10087000089500240A941216130614060506089516
:10088000092E0394000C11F4882352F0BB0F40F49E
:10089000BF2B11F460FF04C06F5F7F4F8F4F9F4FDE
:1008A000089557FD9058440F551F59F05F3F71F060
:1008B0004795880F97FB991F61F09F3F79F08795C7
:1008C0000895121613061406551FF2CF4695F1DF50
:1008D00008C0161617061806991FF1CF86957105E0
:1008E000610508940895E894BB2766277727CB0114
:1008F00097F908950BD0C4CFB5DF28F0BADF18F010
:10090000952309F0A6CFABCF1124EECFCADFA0F319
:10091000959FD1F3950F50E0551F629FF001729F94
:10092000BB27F00DB11D639FAA27F00DB11DAA1FB3
:10093000649F6627B00DA11D661F829F2227B00D00
:10094000A11D621F739FB00DA11D621F839FA00D8B
:10095000611D221F749F3327A00D611D231F849FDB
:10096000600D211D822F762F6A2F11249F57504032
:100970008AF0E1F088234AF0EE0FFF1FBB1F661FCD
:10098000771F881F91505040A9F79E3F510570F086
:1009900060CFAACF5F3FECF3983EDCF38695779566
:1009A0006795B795F795E7959F5FC1F7FE2B880F81
:1009B000911D9695879597F90895A29FB001B39FD1
:1009C000C001A39F01D0B29F700D811D1124911D04
:0609D0000895F894FFCF2A
:1009D600CD8B010043616C69627261746520736539
:1009E6006E733F0043616C6962726174696E672E53
:1009F6002E2E004E6F00596573002020200054658E
:100A06007374696E672E2053746167652032206F98
:100A16006620330054657374696E672E20537461C3
:100A260067652033206F6620330054657374696EE2
:100A3600672E2053746167652031206F662033006E
:100A4600566F6C756D6520666C6F77207261746584
:100A56003A004D61737320666C6F7720726174651E
:100A66003A005B6B672F735D005B6D332F735D0020
:00000001FF
